:04000000AFEF08F066
:1000080000C018F001C017F00CC016F00DC015F0B4
:100018009EAC0CD09E9C386A396AC4CF39F0386AD5
:10002800C3503826000E392239EC08F0F2A406D065
:10003800F294C284480ED76EE40ED66EF0A010D0AB
:10004800030E046E23C000F02AEC08F008C000F08C
:1000580000C023F00050010F236E39EC08F0F09037
:1000680018C000F017C001F016C00CF015C00DF054
:02007800110075
:10007A000F0E0C6E470E0D6E0D2EFED70C2EFCD7F2
:06008A000000000012005E
:0600900000000000120058
:0A009600210E0D6E0D2EFED7120094
:0E00A000026A016A006A086A036A000E120012
:1000AE000B820BAE61EF00F0036802680168006816
:0800BE000A360232FF0E1200A7
:1000C6000B840BAE6EEF00F0010E036E026A016A3E
:0A00D600006A0A360232FF0E120023
:0800E0000AAE029E000E1200A0
:1000E8004CBE02D0839E01D0838E4CBC02D0839C30
:1000F80001D0838C4CBA02D0839A01D0838A4CB841
:1001080002D0839801D0838837B002D0838401D08D
:1001180083948386B9DF83964CB602D0839E01D040
:10012800838E4CB402D0839C01D0838C4CB202D015
:10013800839A01D0838A4CB002D0839801D08388F7
:1001480037B002D0838401D0839483869DDF839661
:0C01580037A002D08EDF01D09ADF120029
:0C016400379048C04CF0BEDF378012001E
:1001700048C004F049C005F004C002F005C003F017
:10018000044A052A4AC000F04BC001F04A4A4B2AF3
:1001900000C0E9FF01C0EAFF02C0E1FF03C0E2FFC7
:1001A000EECFE6FF02C0E9FF03C0EAFFEE5201E036
:0C01B000E3D748C000F049C001F0120085
:1001BC00086A096A000E0762036463EF01F00250DB
:1001CC0006180A6E075003267E0ED8A0F4EF00F036
:1001DC00035ED8B067EF01F0F8EF00F0035ED8A033
:1001EC006BEF01F0028E068E02C00EF001C00BF018
:1001FC0000C00DF000500402F4CF0CF001500502C9
:10020C00F4CF00F0F3CF08F00402F3500C26F450B6
:10021C000822000E00220D500502F3500C26F4505B
:10022C000822000E002202500402F3500826F4505B
:10023C00002202500502016A000E0122F350002632
:10024C00F45001220D500602F3500826F4500022FF
:10025C00026A000E012202220B500602F350002605
:10026C00F4500122000E02220E500602F350012619
:10027C00F450022202BE4BEF01F008360036013674
:10028C0002360306D8B46BEF01F05EEF01F0D880B4
:10029C00800E08640030000E002201220222D8A039
:1002AC005EEF01F0023201320032034A67EF01F0D7
:1002BC000AAE029E000E6DEF01F0010EEBDE6DEF4B
:1002CC0001F0020EEEDE6DEF01F0040EF6DE120010
:1002DC000D6A086A0050D8B4000C04180A6E0ABEE5
:1002EC000D1E0B6A04AE02D0041E042A00AE02D00E
:1002FC00001E002A005004100A6E0ABE1FD00450C3
:10030C00085E003600340836045008260036060E07
:10031C000C6E00340836045000B0085E00A00826AD
:10032C0000360C2EF6D700A008260BB015D00DAE5B
:10033C00000C001E002A081E082A000C04AE09D06E
:10034C0000BE04D00050086E006AF1D7006A002A83
:10035C00000C001E0B2AD3D7082A0450085CD8A422
:0E036C00E6D7086A002A00AEE2D7FF0C1200A6
:10037A000A6A0350D8A40A800750D8A40A820A50ED
:10038A00D8B420EF02F0030AD8B4D9EF01F00AB0CA
:10039A00D4EF01F006AE1EEF02F01CEF02F002AE3F
:1003AA001CEF02F01EEF02F00250800B0A6E029E52
:1003BA000650800B069E0A18D8B4EAEF01F00A50DC
:1003CA00D8B41CEF02F01EEF02F00750035CD8B459
:1003DA00F4EF01F0D8A010EF02F016EF02F0065089
:1003EA00025CD8B4FEEF01F0D8A010EF02F016EFCD
:1003FA0002F00550015CD8B408EF02F0D8A010EF63
:10040A0002F016EF02F00450005CD8B420EF02F0BC
:10041A00D8B016EF02F00A52D8B41EEF02F01CEF61
:10042A0002F00A52D8B41CEF02F01EEF02F0D88094
:0E043A001200D8901200D880D8841200120050
:100448000C6A0E6A0250D8A43DEF02F001C002F017
:1004580000C001F0006A0E860250D8A43DEF02F0F9
:1004680001C002F0016A0E960E880250D8B44FEF10
:1004780002F00E50035ED8A4D8A054EF02F0D89032
:1004880002BE59EF02F0003601360236032E44EF61
:1004980002F054EF02F0010E0C6EFEDD5CEF02F08C
:1004A800020E0C6E0CDE5CEF02F0040E0C6E14DE15
:0204B800120030
:1004BA000CB09FEF02F00CA245EF03F00E6A000E9B
:1004CA000264B6EF02F0F00E0214D8A481EF02F033
:1004DA00023A01380F0B02260138F00B016E003880
:1004EA000F0B01260038F00B006E08380F0B0026A0
:1004FA000838F00B086E0E84D89002BE9AEF02F00C
:10050A0008360036013602360E2A02BE9AEF02F08B
:10051A0008360036013602360E2A02BE9AEF02F07B
:10052A0008360036013602360E2A0E5003643BEFB7
:10053A0003F0035E0BBC08AE40EF03F0D880800ED8
:10054A0008640030000E002201220222D8A040EFE7
:10055A0003F0023201320032034A45EF03F040EF62
:10056A0003F001C002F000C001F008C000F0086A00
:10057A00000E0E860264EDEF02F0F00E0214D8A40B
:10058A00D5EF02F0023A01380F0B02260138F00BC0
:10059A00016E00380F0B01260038F00B006E0E8436
:1005AA00D89002BE9AEF02F00036013602360E2AC1
:1005BA0002BE9AEF02F00036013602360E2A02BE59
:1005CA009AEF02F00036013602360E2A9AEF02F04E
:1005DA0001C002F000C001F0006A000E0E960E88FB
:1005EA0002641AEF03F0F00E0214D8A405EF03F028
:1005FA00023A01380F0B02260138F00B016E0E8405
:10060A00D89002BE9AEF02F0013602360E2A02BED6
:10061A009AEF02F0013602360E2A02BE9AEF02F073
:10062A00013602360E2A9AEF02F001C002F0016A80
:10063A00000E0E8602644AEF03F0F00E0214D8A4EC
:10064A0029EF03F0023A0E84D89002BE9AEF02F024
:10065A0002360E2A02BE9AEF02F002360E2A02BEB5
:10066A009AEF02F002360E2A9AEF02F0010E0C6E91
:10067A0025DD4DEF03F0020E0C6E2DDD4DEF03F07C
:10068A00040E0C6E0FDD4DEF03F0080E0C6E03DD49
:02069A0012004C
:10069C000050086E0150006E016A026A036A0B6A10
:1006AC000C6A960E036E0A6A00C001F008C000F0D6
:0806BC00086A026AC3DE1200A5
:1006C4000FD0800E3A6E19D0C00E3A6E16D0940E2A
:1006D4003A6E13D0D40E3A6E10D0800E3A6E0DD00E
:1006E4003A50010AEEE03A50020AEEE03A50030AA8
:1006F400EEE03A50040AEEE0F0D73B04006E3A50C4
:10070400002600C03AF000C04CF0ECDC37903E6AA2
:100714003E503C24E96E000E3D20EA6EEE520BE0A2
:100724003E503C24E96E000E3D20EA6EEECF48F0C8
:0A07340017DD3E2AEDD737801200D2
:10073E00466A476A3AC042F03BC043F03CC044F0C0
:10074E003DC045F04550FF0A08E14450FF0A05E15F
:10075E004350FF0A02E14250FF0A0CE13EC048F04E
:10076E003FC049F0190E4A6E000E4B6EFADC030EB6
:10077E00006EEBD1010E406E44AE0ED0800E4418CA
:10078E00006E00C044F0402A3EC0E1FF3FC0E2FFD1
:10079E002D0EE66E3E4A3F2A000E006E451808E109
:1007AE000050441805E10050431802E14250000A7F
:1007BE000BE13EC048F03FC049F0210E4A6E000EDC
:1007CE004B6ECFDC006AC1D14550FF0A08E14450A0
:1007DE00000A05E14350000A02E14250000A0CE112
:1007EE003EC048F03FC049F01D0E4A6E000E4B6EE3
:1007FE00B8DC40C000F0A9D1000E046E000E056EEC
:10080E00000E066E7F0E076E42C000F043C001F070
:10081E0044C002F045C003F0A9DD010ED8B0000EB1
:10082E00006E00521BE042C000F043C001F044C015
:10083E0002F045C003F0000E046E000E056E200E91
:10084E00066E820E076EB3DC00C042F001C043F0AC
:10085E0002C044F003C045F04706CED7000E046E2A
:10086E00000E056E200E066E820E076E42C000F060
:10087E0043C001F044C002F045C003F077DD000E26
:10088E00D8B0010E006E00521BE042C000F043C013
:10089E0001F044C002F045C003F0CD0E046ECC0E44
:1008AE00056E4C0E066E7B0E076E81DC00C042F0AC
:1008BE0001C043F002C044F003C045F0472ACED732
:1008CE00FF0E4214086EFF0E4314096E7F0E441481
:1008DE000A6E000E45140B6E08C004F009C005F038
:1008EE000AC006F00BC007F0043604900536063633
:1008FE000736000E4214006E000E4314016E000EF9
:10090E004414026EFF0E4514036E00C042F001C087
:10091E0043F002C044F003C045F004504210006E94
:10092E0005504310016E06504410026E07504510DC
:10093E00036E00C042F001C043F002C044F003C099
:10094E0045F07F0E455C006E00C041F0010E456E15
:10095E0000C004F042C000F043C001F044C002F0F9
:10096E0045C003F0045007E0003600900136023611
:10097E000336FF0FF8D700C042F001C043F002C0AB
:10098E0044F003C045F03EC0E1FF3FC0E2FF4550DA
:10099E00300FE66E3E4A3F2A800E4718006E800EDC
:1009AE00010A005C08E3800E060A006E800E4718EE
:1009BE00005C01E30AD03EC0E1FF3FC0E2FF2E0E15
:1009CE00E66E3E4A3F2A010E466E060E416E4150BD
:1009DE00000A54E0456A42C000F043C001F044C032
:1009EE0002F045C003F000360090013602360336A1
:1009FE000036009001360236033642500026435030
:100A0E000122445002224550032200C042F001C090
:100A1E0043F002C044F003C045F042C000F043C0B2
:100A2E0001F044C002F045C003F0003600900136DC
:100A3E000236033600C042F001C043F002C044F05B
:100A4E0003C045F03EC0E1FF3FC0E2FF4550300F0E
:100A5E00E66E3E4A3F2A4650000A0EE147064750D0
:100A6E00000A0AE13EC0E1FF3FC0E2FF2E0EE66E35
:100A7E003E4A3F2A010E466E4106A9D7FF0E3E247E
:100A8E00E96EFF0E3F20EA6EEE50300A05E1010ED0
:100A9E003E5E000E3F5AF2D7FF0E3E24E96EFF0E69
:100AAE003F20EA6EEE502E0A04E1010E3E5E000E6D
:100ABE003F5A4750000A43E03EC0E1FF3FC0E2FF0D
:100ACE00650EE66E3E4A3F2A800E4718006E800E77
:100ADE00000A005C0BE23EC0E1FF3FC0E2FF2D0EBC
:100AEE00E66E3E4A3F2A47500008476E47C041F027
:100AFE00800E090A006E800E4718005C0FE20A0E87
:100B0E00046E41C000F06EEC01F03EC0E1FF3FC04C
:100B1E00E2FF0050300FE66E3E4A3F2A0A0E046E88
:100B2E0041C000F06EEC01F008C000F03EC0E1FFE5
:100B3E003FC0E2FF0050300FE66E3E4A3F2A3EC0F5
:0C0B4E00E1FF3FC0E2FFE66A006A12000F
:100B5A00025006180E6E086A096A0B6A0350076487
:100B6A00A0EF06F006500A6E068E028E03500B6E38
:100B7A000750036E000E0B64F0EF05F00B50075E92
:100B8A00D8B491EF06F0070E07645FEF06F0075E30
:100B9A0000C008F001C000F002C001F0026A074E6E
:100BAA0091EF06F0076434EF06F0075E00C008F024
:100BBA0001C000F0016A074E91EF06F0076412EFD8
:100BCA0006F0075E00C008F0006A074E91EF06F0D3
:100BDA000764F9EF05F00AC002F005C001F004C08D
:100BEA0000F0086ABDEF07F0030E076404EF06F091
:100BFA00075E08380F0B086E074E91EF06F0D89083
:100C0A000832074E91EF06F0D8900832074E91EF5E
:100C1A0006F0D890083291EF06F0030E076423EF2E
:100C2A0006F0075E08380F0B086E0038F00B08262E
:100C3A0000380F0B006E074E91EF06F0D890003285
:100C4A000832074E91EF06F0D89000320832074E6C
:100C5A0091EF06F0D8900032083291EF06F0030EB9
:100C6A0007644BEF06F0075E08380F0B086E003872
:100C7A00F00B082600380F0B006E0138F00B002627
:100C8A0001380F0B016E074E91EF06F0D890013232
:100C9A0000320832074E91EF06F0D8900132003246
:100CAA000832074E91EF06F0D8900132003208322E
:100CBA0091EF06F0030E07647CEF06F0075E083832
:100CCA000F0B086E0038F00B082600380F0B006E69
:100CDA000138F00B002601380F0B016E0238F00BB9
:100CEA00012602380F0B026E074E91EF06F0D890DC
:100CFA000232013200320832074E91EF06F0D890E4
:100D0A000232013200320832074E91EF06F0D890D3
:100D1A000232013200320832096A000E0EAE85EF45
:100D2A0007F0081E001E011E021E082A00220122C8
:100D3A00022285EF07F00750D8A4A6EF06F0BDEF10
:100D4A0007F0096A02C00AF0028E068E0750035C99
:100D5A00076ED8B478EF07F0070E076446EF07F07E
:100D6A00075E0450096E0550046E0650056E066A49
:100D7A00074E78EF07F0070E07641BEF07F0075ED0
:100D8A000450096E0550046E056A074E78EF07F0A5
:100D9A00070E0764F9EF06F0075E0450096E046A4D
:100DAA00074E78EF07F0070E0764E0EF06F00AC077
:100DBA0002F0BDEF07F0030E0764EBEF06F0075EE3
:100DCA0009380F0B096E074E78EF07F0D8900932F1
:100DDA00074E78EF07F0D8900932074E78EF07F000
:100DEA00D890093278EF07F0030E07640AEF07F08C
:100DFA00075E09380F0B096E0438F00B0926043810
:100E0A000F0B046E074E78EF07F0D89004320932C0
:100E1A00074E78EF07F0D89004320932074E78EF80
:100E2A0007F0D8900432093278EF07F0030E07640E
:100E3A0032EF07F0075E09380F0B096E0438F00B22
:100E4A00092604380F0B046E0538F00B0426053802
:100E5A000F0B056E074E78EF07F0D8900532043273
:100E6A000932074E78EF07F0D8900532043209327A
:100E7A00074E78EF07F0D89005320432093278EF3E
:100E8A0007F0030E076463EF07F0075E09380F0BDC
:100E9A00096E0438F00B092604380F0B046E053866
:100EAA00F00B042605380F0B056E0638F00B0526E5
:100EBA0006380F0B066E074E78EF07F0D890063209
:100ECA00053204320932074E78EF07F0D89006321D
:100EDA00053204320932074E78EF07F0D89006320D
:100EEA00053204320932086A000E0EAE85EF07F0A9
:100EFA00091E041E051E061E092A042205220622B0
:100F0A0009500826045000220550012206500222E8
:100F1A000EBE9CEF07F0D8A0ABEF07F00232013209
:100F2A0000320832033EABEF07F0B7EF07F0D8B054
:100F3A00B1EF07F0000E081E001E011E021E082A4D
:100F4A000022012202220A7EB1EF07F0010E0C6E86
:100F5A005DEC02F0BFEF07F0020E0C6E5DEC02F0E2
:100F6A00BFEF07F0040E0C6E57EC00F0BFEF07F06E
:060F7A00000E0C6E1200D7
:100F8000959695949598959A959C959E839683941D
:100F9000839E839C839A83983DEC00F03DEC00F0A7
:100FA0003DEC00F0838A8388838648EC00F08396CA
:100FB0003DEC00F0838648EC00F083963DEC00F0B9
:100FC000838648EC00F083963DEC00F0839883869E
:100FD00048EC00F083963DEC00F0838648EC00F08E
:100FE0008396839A838E838648EC00F083963DEC4B
:100FF00000F0839E8388838648EC00F08396839874
:10100000838648EC00F083963DEC00F0838648EC44
:1010100000F083968388838648EC00F083963DEC4D
:1010200000F08398838648EC00F08396838E838C4F
:10103000838A8388838648EC00F083963DEC00F039
:0410400037801200E3
:101044000900F5CFE6FF0006FBE10106F9E1120015
:10105400086A080E0C6E003408360450085ED8B0D6
:0E10640002D00826D89000360C2EF5D71200C8
:1010720038C000F039C001F04EEC03F0900E046E5F
:101082003E0E056E7A0E066E7D0E076EDEEC00F0E9
:1010920000C033F001C034F002C035F003C036F0B6
:1010A200235223E033C000F034C001F035C002F017
:1010B20036C003F0660E046E660E056E660E066E90
:1010C2007F0E076EDEEC00F0000E046E000E056E61
:1010D200000E066E840E076E3FDD00C033F001C0C5
:1010E20034F002C035F003C036F02350020A19E191
:1010F20033C000F034C001F035C002F036C003F056
:10110200330E046E930E056E080E066E870E076E82
:1011120023DD00C033F001C034F002C035F003C05B
:1011220036F033C03AF034C03BF035C03CF036C044
:101132003DF0240E3E6E000E3F6E9FEC03F0010E5A
:101142004C6E74EC00F0010E3A6E010E3B6E240EF2
:0C1152003C6E000E3D6E62EC03F01200DB
:10115E00D2EC08F096820DDF9E9C9D8CFF0E936E56
:10116E00710EC26ECE0EC16EF28CF294F28A850EA4
:10117E00D56E480ED76EE40ED66EF19AF090F086CC
:0A118E00F28EC2840000FED7FFD7E6
:1011A40010EE19F00B0E006E010E016E980EF66E25
:0E11B400110EF76E000EF86E22EC08F012001D
:041198004E614E0056
:04119C00494E460072
:0211A00030001D
:0111A200004C
:020000040030CA
:0D000100220F0EFF0181FF0FC00FE00F4026
:00000001FF
