:1000000037EF00F00000000000EF00F000000000FB
:0A0010000000000000000000F3D71C
:10001C00FF0E1D6EFF0E1E6EFF0E1F6EFF0E206E6E
:10002C004C0E196E000E1A6E210E1B6E000E1C6EFD
:10003C00949E93929380C66A400EC76EC68A120035
:10004C0021C0C9FFC7B002D00000FCD7C9CF00F057
:02005C00120090
:10005E000900F5CFE6FF0006FBE10106F9E112000B
:10006E00946A82903F0E176E000E186EFF0E156E7C
:10007E00000E166ECCDF17C021F0E1DF420E0D6EC2
:10008E000D2EFED7000015C021F0D9DF420E0D6EE9
:0E009E000D2EFED7000082800000FED7FFD797
:020000040030CA
:0E000000000C1F1EFF8381FF0FC00FE00F409A
:00000001FF
