:04000000BEEF05F05A
:1000080000C019F001C018F00BC017F00CC016F0B2
:100018000DC015F0F2A407D08170480ED76EE50E1A
:10002800D66EC282F2949EAC97D0C4CF01F0006A1B
:10003800C3500026000E0122FCDB00C01EF001C0E8
:100048001FF002C020F003C021F0000E046E000E65
:10005800056E200E066E810E076E64EC04F0000E2D
:10006800046E000E056E000E066E890E076EFAEC21
:1000780004F000C01AF001C01BF002C01CF003C05D
:100088001DF0000E046E000E056E480E066E850EFD
:10009800076E64EC04F0000E046E000E056E480E48
:1000A800066E840E076EF7EC04F000C024F001C061
:1000B80025F002C026F003C027F0240E226E000EA1
:1000C800236E22C0E9FF23C0EAFFEECF38F0B7EC79
:1000D80005F01A0E0C6EF80E0D6E0D2EFED70C2EB6
:1000E800FCD70000010E2224E96E000E2320EA6EE0
:1000F800EECF38F0B7EC05F01A0E0C6EF80E0D6E58
:100108000D2EFED70C2EFCD70000020E2224E96E1D
:10011800000E2320EA6EEECF38F0B7EC05F01A0E89
:100128000C6EF80E0D6E0D2EFED70C2EFCD70000AF
:10013800030E2224E96E000E2320EA6EEECF38F07B
:10014800B7EC05F01A0E0C6EF80E0D6E0D2EFED7DC
:100158000C2EFCD700009E9C19C000F018C001F0BE
:0E01680017C00BF016C00CF015C00DF0110002
:080176000AAE029E000E120009
:10017E000B840BAECAEF00F0010E036E026A016A29
:0A018E00006A0A360232FF0E12006A
:100198000B820BAED6EF00F00368026801680068B6
:0801A8000A360232FF0E1200BC
:0E01B000026A016A006A086A036A000E120001
:1001BE000CB021EF01F00CA2C7EF01F00E6A000E99
:1001CE00026438EF01F0F00E0214D8A403EF01F030
:1001DE00023A01380F0B02260138F00B016E00387F
:1001EE000F0B01260038F00B006E08380F0B00269F
:1001FE000838F00B086E0E84D89002BE1CEF01F08A
:10020E0008360036013602360E2A02BE1CEF01F009
:10021E0008360036013602360E2A02BE1CEF01F0F9
:10022E0008360036013602360E2A0E500364BDEF34
:10023E0001F0035E0BBC08AEC2EF01F0D880800E59
:10024E0008640030000E002201220222D8A0C2EF64
:10025E0001F0023201320032034AC7EF01F0C2EF61
:10026E0001F001C002F000C001F008C000F0086A01
:10027E00000E0E8602646FEF01F0F00E0214D8A489
:10028E0057EF01F0023A01380F0B02260138F00B3E
:10029E00016E00380F0B01260038F00B006E0E8435
:1002AE00D89002BE1CEF01F00036013602360E2A3F
:1002BE0002BE1CEF01F00036013602360E2A02BED7
:1002CE001CEF01F00036013602360E2A1CEF01F04B
:1002DE0001C002F000C001F0006A000E0E960E88FA
:1002EE0002649CEF01F0F00E0214D8A487EF01F027
:1002FE00023A01380F0B02260138F00B016E0E8404
:10030E00D89002BE1CEF01F0013602360E2A02BE54
:10031E001CEF01F0013602360E2A02BE1CEF01F070
:10032E00013602360E2A1CEF01F001C002F0016AFE
:10033E00000E0E860264CCEF01F0F00E0214D8A46B
:10034E00ABEF01F0023A0E84D89002BE1CEF01F022
:10035E0002360E2A02BE1CEF01F002360E2A02BE33
:10036E001CEF01F002360E2A1CEF01F0010E0C6E8E
:10037E00FFDECFEF01F0020E0C6EF6DECFEF01F0D6
:10038E00040E0C6E02DFCFEF01F0080E0C6E09DFCB
:02039E0012004B
:1003A0000C6A0E6A0250D8A4E9EF01F001C002F015
:1003B00000C001F0006A0E860250D8A4E9EF01F0F7
:1003C00001C002F0016A0E960E880250D8B4FBEF0D
:1003D00001F00E50035ED8A4D8A000EF02F0D89030
:1003E00002BE05EF02F0003601360236032EF0EFB2
:1003F00001F000EF02F0010E0C6EDADE08EF02F001
:10040000020E0C6EBCDE08EF02F0040E0C6EB3DEC2
:020410001200D8
:080412000B6A0B86FF0E1200BD
:10041A00025006180E6E086A096A0B6A03500764CE
:10042A0000EF03F006500A6E068E028E03500B6E22
:10043A000750036E000E0B6450EF02F00B50075E7C
:10044A00D8B4F1EF02F0070E0764BFEF02F0075EBF
:10045A0000C008F001C000F002C001F0026A074EB5
:10046A00F1EF02F0076494EF02F0075E00C008F0B3
:10047A0001C000F0016A074EF1EF02F0076472EF63
:10048A0002F0075E00C008F0006A074EF1EF02F0C2
:10049A00076459EF02F00AC002F005C001F004C077
:1004AA0000F0086A1AEF04F0030E076464EF02F022
:1004BA00075E08380F0B086E074EF1EF02F0D8906E
:1004CA000832074EF1EF02F0D8900832074EF1EFEA
:1004DA0002F0D8900832F1EF02F0030E076483EFBE
:1004EA0002F0075E08380F0B086E0038F00B08267A
:1004FA0000380F0B006E074EF1EF02F0D890003271
:10050A000832074EF1EF02F0D89000320832074E57
:10051A00F1EF02F0D89000320832F1EF02F0030E48
:10052A000764ABEF02F0075E08380F0B086E00385D
:10053A00F00B082600380F0B006E0138F00B00266E
:10054A0001380F0B016E074EF1EF02F0D89001321D
:10055A0000320832074EF1EF02F0D8900132003231
:10056A000832074EF1EF02F0D89001320032083219
:10057A00F1EF02F0030E0764DCEF02F0075E0838C1
:10058A000F0B086E0038F00B082600380F0B006EB0
:10059A000138F00B002601380F0B016E0238F00B00
:1005AA00012602380F0B026E074EF1EF02F0D890C7
:1005BA000232013200320832074EF1EF02F0D890CF
:1005CA000232013200320832074EF1EF02F0D890BF
:1005DA000232013200320832096A000E0EAEE5EF2D
:1005EA0003F0081E001E011E021E082A0022012214
:1005FA000222E5EF03F00750D8A406EF03F01AEF42
:10060A0004F0096A02C00AF0028E068E0750035CE3
:10061A00076ED8B4D8EF03F0070E0764A6EF03F00D
:10062A00075E0450096E0550046E0650056E066A90
:10063A00074ED8EF03F0070E07647BEF03F0075E5F
:10064A000450096E0550046E056A074ED8EF03F090
:10065A00070E076459EF03F0075E0450096E046A37
:10066A00074ED8EF03F0070E076440EF03F00AC005
:10067A0002F01AEF04F0030E07644BEF03F0075E73
:10068A0009380F0B096E074ED8EF03F0D8900932DC
:10069A00074ED8EF03F0D8900932074ED8EF03F08F
:1006AA00D8900932D8EF03F0030E07646AEF03F01B
:1006BA00075E09380F0B096E0438F00B0926043857
:1006CA000F0B046E074ED8EF03F0D89004320932AC
:1006DA00074ED8EF03F0D89004320932074ED8EF0C
:1006EA0003F0D89004320932D8EF03F0030E0764FE
:1006FA0092EF03F0075E09380F0B096E0438F00B0E
:10070A00092604380F0B046E0538F00B0426053849
:10071A000F0B056E074ED8EF03F0D890053204325E
:10072A000932074ED8EF03F0D89005320432093265
:10073A00074ED8EF03F0D890053204320932D8EFC9
:10074A0003F0030E0764C3EF03F0075E09380F0BCB
:10075A00096E0438F00B092604380F0B046E0538AD
:10076A00F00B042605380F0B056E0638F00B05262C
:10077A0006380F0B066E074ED8EF03F0D8900632F4
:10078A00053204320932074ED8EF03F0D890063208
:10079A00053204320932074ED8EF03F0D8900632F8
:1007AA00053204320932086A000E0EAEE5EF03F094
:1007BA00091E041E051E061E092A042205220622F7
:1007CA000950082604500022055001220650022230
:1007DA000EBEFCEF03F0D8A00BEF04F00232013298
:1007EA0000320832033E0BEF04F015EF04F0D8B0E4
:1007FA0010EF04F0000E081E001E011E021E082A39
:10080A000022012202220A7E10EF04F0010E0C6E71
:10081A00D1DC1CEF04F0020E0C6ECCDC1CEF04F0F1
:10082A00040E0C6EB4DC1CEF04F0000E0C6E120009
:10083A000050086E0150006E016A026A036A0B6A70
:10084A000C6A960E036E0A6A00C001F008C000F036
:08085A00086A026AA0DD120029
:100862000900F5CFE6FF0006FBE10106F9E11200FF
:100872006E0E2C6E0B0E2D6E380E2E6E000E2F6E1F
:10088200FF0E286EFF0E296E000E2A6E000E2B6ED2
:10089200FF0E346EFF0E356E000E366E000E376E92
:1008A200FF0E306EFF0E316E000E326E000E336E92
:1008B200AC8A900EAB6E948E949C9EAA03D0AECF5F
:0608C20000F0FBD712005C
:1008C800086A096A000E07620364E9EF04F002503F
:1008D80006180A6E075003267E0ED8A07AEF04F099
:1008E800035ED8B0EEEF04F07EEF04F0035ED8A00C
:1008F800F3EF04F0028E068E02C00EF001C00BF07A
:1009080000C00DF000500402F4CF0CF001500502B5
:10091800F4CF00F0F3CF08F00402F3500C26F450A3
:100928000822000E00220D500502F3500C26F45048
:100938000822000E002202500402F3500826F45048
:10094800002202500502016A000E0122F35000261F
:10095800F45001220D500602F3500826F4500022EC
:10096800026A000E012202220B500602F3500026F2
:10097800F4500122000E02220E500602F350012606
:10098800F450022202BED1EF04F0083600360136D8
:1009980002360306D8B4F3EF04F0E4EF04F0D8808D
:1009A800800E08640030000E002201220222D8A026
:1009B800E4EF04F0023201320032034AEEEF04F0B1
:1009C8000AAE029E000EF6EF04F0010ED8EC00F01D
:1009D800F6EF04F0020ECCEC00F0F6EF04F0040E93
:0609E800BFEC00F012005C
:0609EE00067E14DD12007C
:1009F4000450000A12E10550000A0FE10650000AF3
:100A04000CE10750000A09E1FF0E006EFF0E016EB3
:100A14007F0E026EFF0E036EA7D0086A096A0750A4
:100A2400D8B4A5EF05F00350D8B4A9EF05F00250EF
:100A340006180A6E028E068E0E6A02C008F001C005
:100A44000CF000C00DF004500D5E0550D8A0053C1C
:100A54000C5E0650D8A0063C085E086A0C6A0D6A53
:100A6400D8A03CEF05F0D8900232013200320832AF
:100A7400010E0E6E0750035ED8A049EF05F07E0EFE
:100A84000E240326D8B0AEEF05F04FEF05F07E0E2E
:100A94000E240326D8A0B3EF05F0180E0B6E0D3606
:100AA4000C3608360036013602360E360450005E27
:100AB4000550D8A0053C015E0650D8A0063C025E55
:100AC40006340E120EA06AEF05F00D8075EF05F0E6
:100AD400045000260550D8B0053C01260650D8B075
:100AE400062802260D900B2E51EF05F09BEF05F022
:100AF400D8900036013602360E360450005E05509A
:100B0400D8A0053C015E0650D8A0063C025E06341F
:100B14000E10010B0D26D8B00C2AD8B4082AD8A47C
:100B24009BEF05F008320C320D32032AD8B4AEEF35
:100B340005F00AAE089E0850026E0C50016E0D506E
:100B4400006EB6EF05F0010E62DCB6EF05F0020EA2
:100B5400D8EC00F0B6EF05F0040ECCEC00F0B6EFE4
:0A0B640005F0080EBFEC00F01200CF
:0E0B6E00ACB202D00000FCD738C0ADFF1200C0
:100B7C00C16A030EC26E8D0EC06E9390850ED56E3B
:100B8C00480ED76EE50ED66EB886B06ACF0EAF6E35
:100B9C00AC8469DE040E0B6E0C0E0C6E330E0D6EF7
:100BAC000D2EFED70C2EFCD70B2EFAD70000000012
:100BBC00936AF294F28A9E9C9D8CF28CF28EC28285
:060BCC000000FED7FFD778
:020000040030CA
:0E000000000C1F1EFF8381FF0FC00FE00F409A
:00000001FF
