:1000000025EF00F00000000000EF00F0000000000D
:0A0010000000000000000000F3D71C
:10001C00086A080E0C6E003408360450085ED8B01E
:0E002C0002D00826D89000360C2EF5D7120010
:10003A000900F5CFE6FF0006FBE10106F9E112002F
:10004A003F0E156E060E166E5B0E176E4F0E186E6D
:10005A00660E196E6D0E1A6E7D0E1B6E070E1C6EE5
:10006A007F0E1D6E670E1E6E070EC16E956A836A3D
:10007A009290929280908092206A3C0E205C40E29C
:10008A001F6A010E1F5C3AE20A0E046E20C000F0DD
:10009A00C0DF08C000F0150EE96E000EEA6E0050CF
:1000AA00E926D8B0EA2AEECF83FF8080340E0C6EA0
:1000BA00F10E0D6E0D2EFED70C2EFCD7000000009F
:1000CA0080900A0E046E20C000F0A3DF150EE96EC0
:1000DA00000EEA6E0050E926D8B0EA2AEECF83FF76
:1000EA008082340E0C6EF10E0D6E0D2EFED70C2E84
:1000FA00FCD70000000080921F2AC3D7202ABDD750
:04010A00BBD7FFD789
:020000040030CA
:0D000100220F0EFF0181FF0FC00FE00F4026
:00000001FF
