:0400000027EF00F0F6
:1000080000C015F0F292630E165C02E3166A01D086
:08001800162A15C000F01100CA
:10002000086A080E0C6E003408360450085ED8B01A
:0E00300002D00826D89000360C2EF5D712000C
:10003E000900F5CFE6FF0006FBE10106F9E112002B
:10004E00166A3F0E176E060E186E5B0E196E4F0E69
:10005E001A6E660E1B6E6D0E1C6E7D0E1D6E070EDD
:10006E001E6E7F0E1F6E670E206E070EC16E938082
:10007E0093928192F19EF19CF292F288F28E94907C
:10008E00949282908292956A836A0A0E046E16C0CA
:10009E0000F0BFDF170EE96E000EEA6E0050E92683
:1000AE00D8B0EA2AEECF83FF8290340E0C6EF10E9A
:1000BE000D6E0D2EFED70C2EFCD700000000828098
:1000CE000A0E046E16C000F0A4DF08C000F0170E72
:1000DE00E96E000EEA6E0050E926D8B0EA2AEECF9D
:1000EE0083FF8292340E0C6EF10E0D6E0D2EFED726
:0E00FE000C2EFCD7000000008282C7D7FFD76F
:020000040030CA
:0D000100220F0EFF0181FF0FC00FE00F4026
:00000001FF
