:0400000070EF01F0AC
:1000080000C018F001C017F00CC016F00DC015F0B4
:1000180081CF27F0F2902250010A0AE1226A010EEC
:10002800296E010E2A6E1B0E2B6E000E2C6E17D930
:100038001950000A18E11A50640AD8B41A6A010E55
:10004800196E1AC029F0230E2A6E000E2B6E7BD86B
:10005800010E296E070E2A6E230E2B6E000E2C6ED3
:10006800FED81A2A01D0196A18C000F017C001F08A
:0A00780016C00CF015C00DF01100C9
:0600820000000000120066
:100088000F0E0C6E470E0D6E0D2EFED70C2EFCD7E4
:0600980000000000120050
:0A009E00210E0D6E0D2EFED712008C
:1000A80030BE02D0839E01D0838E30BC02D0839CA8
:1000B80001D0838C30BA02D0839A01D0838A30B8B9
:1000C80002D0839801D0838828B002D0838401D0DD
:1000D80083948386D2DF839630B602D0839E01D084
:1000E800838E30B402D0839C01D0838C30B202D08E
:1000F800839A01D0838A30B002D0839801D0838854
:1001080028B002D0838401D083948386B6DF839697
:0C01180028A002D0B5DF01D0BEDF12002D
:0C01240028902FC030F0BEDF28801200B1
:10013000086A080E0C6E003408360450085ED8B009
:0E01400002D00826D89000360C2EF5D71200FB
:10014E002C6A030E2C5C0AE22C502A24E16E000E5F
:10015E002B20E26E200EE66E2C2AF3D72C502A248A
:10016E00E16E000E2B20E26EE66A2C062C502A243D
:10017E002D6E000E2B202E6E0A0E046E29C000F07E
:10018E00D0DF08C000F0300E00262DC0E1FF2EC0DB
:10019E00E2FF00C0E6FF0A0E046E29C000F0C1DFC8
:1001AE0000C029F00050000A01E102D02C06DED773
:0201BE0012002D
:1001C0000900F5CFE6FF0006FBE10106F9E11200A8
:1001D000959695949598959A959C959E83968394DB
:1001E000839E839C839A83984FDF4EDF4DDF838A03
:1001F0008388838646DF839647DF838642DF839644
:1002000043DF83863EDF83963FDF8398838639DF33
:1002100083963ADF838635DF8396839A838E83863F
:1002200030DF839631DF839E838883862ADF83963F
:100230008398838626DF839627DF838622DF839653
:10024000838883861EDF83961FDF8398838619DF6A
:100250008396838E838C838A8388838612DF83963A
:0602600013DF28801200EC
:100266000FD0800E296E19D0C00E296E16D0940EAE
:10027600296E13D0D40E296E10D0800E296E0DD0A3
:100286002950010AEEE02950020AEEE02950030A3D
:10029600EEE02950040AEEE0F0D72A04006E295059
:1002A600002600C029F000C030F0FBDE28902D6A41
:1002B6002D502B24E96E000E2C20EA6EEE520BE038
:1002C6002D502B24E96E000E2C20EA6EEECF2FF077
:0A02D60026DF2D2AEDD72880120044
:1002E000196A1A6A540E1B6E750E1C6E720E1D6E04
:1002F0006E0E1E6E6F0E1F6E3A0E206E216A010E7C
:10030000226E816A9388F19E81CF27F0F290F28667
:0E031000F28E5EDF81CF27F0F280FFD7FFD79D
:020000040030CA
:0D000100220F0EFF0181FF0FC00FE00F4026
:00000001FF
