:040000002DEF00F0F0
:10000800F0A000D0F2A004D0100E155E000E165A13
:020018001100D5
:10001A00FF0E1B6EFF0E1C6EFF0E1D6EFF0E1E6E78
:10002A00FF0E176EFF0E186EFF0E196EFF0E1A6E78
:10003A00949E93929380C66A400EC76EC68A120037
:10004A000900F5CFE6FF0006FBE10106F9E112001F
:10005A00156A300E166E946A010E936E8290D8DF7E
:0C006A00F288F292F28E0000FED7FFD761
:020000040030CA
:0E000000000C1F1EFF8381FF0FC00FE00F409A
:00000001FF
