:1000000016EF00F00000000000EF00F0000000001C
:0A0010000000000000000000F3D71C
:10001C000900F5CFE6FF0006FBE10106F9E112004D
:10002C00070EC16E946A826A8280030E0B6E080EF4
:10003C000C6E770E0D6E0D2EFED70C2EFCD70B2EE4
:10004C00FAD78290020E0B6E040E0C6EBA0E0D6E69
:10005C000D2EFED70C2EFCD70B2EFAD70000828269
:10006C00030E0B6E080E0C6E770E0D6E0D2EFED75A
:10007C000C2EFCD70B2EFAD78292020E0B6E040EAE
:10008C000C6EBA0E0D6E0D2EFED70C2EFCD70B2E51
:10009C00FAD700008284030E0B6E080E0C6E770EDE
:1000AC000D6E0D2EFED70C2EFCD70B2EFAD782948C
:1000BC00020E0B6E040E0C6EBA0E0D6E0D2EFED7CC
:1000CC000C2EFCD70B2EFAD700008286030E0B6E7B
:1000DC00080E0C6E770E0D6E0D2EFED70C2EFCD767
:1000EC000B2EFAD78296020E0B6E040E0C6EBA0E05
:1000FC000D6E0D2EFED70C2EFCD70B2EFAD7000052
:10010C008288030E0B6E080E0C6E770E0D6E0D2E84
:10011C00FED70C2EFCD70B2EFAD78298020E0B6E44
:10012C00040E0C6EBA0E0D6E0D2EFED70C2EFCD7D7
:10013C000B2EFAD70000828A030E0B6E080E0C6E83
:10014C00770E0D6E0D2EFED70C2EFCD70B2EFAD77C
:10015C00829A020E0B6E040E0C6EBA0E0D6E0D2EE4
:10016C00FED70C2EFCD70B2EFAD70000828C030E78
:10017C000B6E080E0C6E770E0D6E0D2EFED70C2E20
:10018C00FCD70B2EFAD7829C020E0B6E040E0C6E53
:10019C00BA0E0D6E0D2EFED70C2EFCD70B2EFAD7E9
:1001AC000000828E030E0B6E080E0C6E770E0D6E19
:1001BC000D2EFED70C2EFCD70B2EFAD7829E020EDC
:1001CC000B6E040E0C6EBA0E0D6E0D2EFED70C2E91
:0C01DC00FCD70B2EFAD7000027D7FFD766
:020000040030CA
:0D000100220F0EFF0181FF0FC00FE00F4026
:00000001FF
