:0400000017EF01F005
:1000080000C017F00CC016F00DC015F0F292000EEB
:10001800191802E1000E181847E18292340E0C6E8E
:10002800F10E0D6E0D2EFED70C2EFCD70000000031
:100038008294340E0C6EF10E0D6E0D2EFED70C2E22
:10004800FCD7000000008286340E0C6EF10E0D6E97
:100058000D2EFED70C2EFCD7000000008296340E21
:100068000C6EF10E0D6E0D2EFED70C2EFCD7000077
:1000780000008280340E0C6EF10E0D6E0D2EFED730
:100088000C2EFCD7000000008282340E0C6EF10E9C
:100098000D6E0D2EFED70C2EFCD700000000010EB1
:1000A800186E000E196EB0D08292340E0C6EF10EDE
:1000B8000D6E0D2EFED70C2EFCD70000000082908E
:1000C800340E0C6EF10E0D6E0D2EFED70C2EFCD7D5
:1000D800000000008286340E0C6EF10E0D6E0D2E9F
:1000E800FED70C2EFCD7000000008296340E0C6E52
:1000F800F10E0D6E0D2EFED70C2EFCD70000000061
:100108008284340E0C6EF10E0D6E0D2EFED70C2E61
:10011800FCD7000000008294340E0C6EF10E0D6EB8
:100128000D2EFED70C2EFCD7000000008282340E64
:100138000C6EF10E0D6E0D2EFED70C2EFCD70000A6
:1001480000008292340E0C6EF10E0D6E0D2EFED74D
:100158000C2EFCD7000000008280340E0C6EF10ECD
:100168000D6E0D2EFED70C2EFCD7000000008286E7
:10017800340E0C6EF10E0D6E0D2EFED70C2EFCD724
:10018800000000008290340E0C6EF10E0D6E0D2EE4
:10019800FED70C2EFCD7000000008296340E0C6EA1
:1001A800F10E0D6E0D2EFED70C2EFCD700000000B0
:1001B8008284340E0C6EF10E0D6E0D2EFED70C2EB1
:1001C800FCD7000000008294340E0C6EF10E0D6E08
:1001D8000D2EFED70C2EFCD7000000008282340EB4
:1001E8000C6EF10E0D6E0D2EFED70C2EFCD70000F6
:1001F80000008280340E0C6EF10E0D6E0D2EFED7AF
:100208000C2EFCD70000000017C000F016C00CF040
:0602180015C00DF01100FD
:10021E000900F5CFE6FF0006FBE10106F9E1120049
:10022E00186A196A946A826A010E936EF19CF292B0
:10023E00F288F28E8280340E0C6EF10E0D6E0D2E43
:10024E00FED70C2EFCD7000000008290340E0C6EF0
:10025E00F10E0D6E0D2EFED70C2EFCD700000000F9
:10026E008282340E0C6EF10E0D6E0D2EFED70C2EFC
:10027E00FCD7000000008284340E0C6EF10E0D6E61
:10028E000D2EFED70C2EFCD700000000FFD7FFD797
:020000040030CA
:0D000100220F0EFF0181FF0FC00FE00F4026
:00000001FF
