:04000000DEEF03F03C
:1000080000C018F001C017F00CC016F00DC015F0B4
:10001800D6CF22F0000E236ED7CF01F0006A22500F
:1000280000262350012200C022F001C023F0D76A25
:10003800D66A1DD9000E046E000E056E000E066EFF
:10004800850E076E30DA00C004F001C005F002C06A
:1000580006F003C007F0C00E006EE10E016E640EDC
:10006800026E980E036EECDA16D900C019F001C0C2
:100078001AF000C024F001C025F01B0E266E000EF9
:10008800276EC9D9010E246E010E256E1B0E266E31
:10009800000E276E98DAD58EF29218C000F017C0BD
:0C00A80001F016C00CF015C00DF01100A6
:1000B4000F0E0C6E470E0D6E0D2EFED70C2EFCD7B8
:0600C40000000000120024
:0600CA000000000012001E
:0A00D000210E0D6E0D2EFED712005A
:0800DA000AAE029E000E1200A6
:1000E2000B840BAE7CEF00F0010E036E026A016A14
:0A00F200006A0A360232FF0E120007
:0E00FC00026A016A006A086A036A000E1200B6
:10010A002CBE02D0819E01D0818E2CBC02D0819C53
:10011A0001D0818C2CBA02D0819A01D0818A2CB864
:10012A0002D0819801D0818821B002D0818401D087
:10013A0081948186C5DF81962CB602D0819E01D03A
:10014A00818E2CB402D0819C01D0818C2CB202D039
:10015A00819A01D0818A2CB002D0819801D08188FD
:10016A0021B002D0818401D081948186A9DF819651
:0C017A0021A002D09ADF01D0A6DF120005
:080186000B6A0B86FF0E12004C
:10018E000C6A0E6A0250D8A4E0EF00F001C002F033
:10019E0000C001F0006A0E860250D8A4E0EF00F015
:1001AE0001C002F0016A0E960E880250D8B4F2EF2A
:1001BE0000F00E50035ED8A4D8A0F7EF00F0D89050
:1001CE0002BEFCEF00F0003601360236032EE7EFDA
:1001DE0000F0F7EF00F0010E0C6E89DFFFEF00F07C
:1001EE00020E0C6E77DFFFEF00F0040E0C6E6EDF6A
:0201FE001200ED
:100200000B820BAE0AEF01F0036802680168006818
:080210000A360232FF0E120053
:10021800086A096A100E0C6E013408360936045053
:10022800085E0550D8A0053C095ED8B007D0045038
:1002380008260550D8B0053C0926D8900036013666
:060248000C2EEAD71200A3
:0C024E0021902BC02CF05ADF2180120000
:10025A000B800BAE39EF01F0026A0AAEFF0E026E96
:0C026A00016E006E0A360232FF0E120018
:100276000050086E0150006E016A026A036A0B6A3A
:100286000C6A960E036E0A6A00C001F008C000F000
:08029600086A026A79DF120018
:10029E000B6A0C6A0A6A0350D8B499EF01F0028E09
:1002AE008E0E035E03BE61EF01F0D8B461EF01F074
:1002BE009DEF01F0036C080E035CD8A078EF01F0FF
:1002CE00036E013602C001F0026A080E035CD8A06C
:1002DE0078EF01F00136016A0350D8A4D89082EF6E
:1002EE0001F00350D8B482EF01F0D89002320132FF
:1002FE00032E7CEF01F00BBC01A08FEF01F0D8A014
:10030E008FEF01F0012AD8B4022A02BEACEF01F041
:10031E000AAEB1EF01F0021E011E012AD8B4022A64
:10032E00B1EF01F0026A016AB1EF01F00B800BAE82
:10033E00B5EF01F0026A0AAEB5EF01F0FF0E026EE4
:10034E00016E0A360232B5EF01F0010E0C6E7EDF41
:10035E00B7EF01F0000E0C6EB7EF01F0FF0E0C6E52
:0A036E000150006E0250016E1200F3
:10037800939693949398939A939C939E8196819441
:10038800819E819C819A819891DE90DE8FDE818AA0
:100398008188818696DE819689DE818692DE8196C5
:1003A80085DE81868EDE819681DE8198818689DE72
:1003B80081967CDE818685DE8196819A818E818612
:1003C80080DE819673DE819E818881867ADE8196C1
:1003D8008198818676DE819669DE818672DE8196D5
:1003E800818881866EDE819661DE8198818669DEEC
:1003F8008196818E818C818A8188818662DE819650
:0604080055DE2180120008
:10040E000900F5CFE6FF0006FBE10106F9E1120057
:10041E00286A050E285C0AE228502624E16E000E9A
:10042E002720E26E200EE66E282AF3D728502624C7
:10043E00E16E000E2720E26EE66A2806285026247A
:10044E00296E000E27202A6E0A0E046E000E056E0F
:10045E0024C000F025C001F0D8DE08C000F009C0AD
:10046E0001F0300E002629C0E1FF2AC0E2FF00C0D5
:10047E00E6FF0A0E046E000E056E24C000F025C0C5
:10048E0001F0C3DE00C024F001C025F0000E0118FB
:10049E0002E1000E001801E102D02806CFD71200AB
:1004AE00086A096A000E07620364DCEF02F002506C
:1004BE0006180A6E075003267E0ED8A06DEF02F0C6
:1004CE00035ED8B0E0EF02F071EF02F0035ED8A049
:1004DE00E4EF02F0028E068E02C00EF001C00BF0A9
:1004EE0000C00DF000500402F4CF0CF001500502D4
:1004FE00F4CF00F0F3CF08F00402F3500C26F450C2
:10050E000822000E00220D500502F3500C26F45066
:10051E000822000E002202500402F3500826F45066
:10052E00002202500502016A000E0122F35000263D
:10053E00F45001220D500602F3500826F45000220A
:10054E00026A000E012202220B500602F350002610
:10055E00F4500122000E02220E500602F350012624
:10056E00F450022202BEC4EF02F008360036013605
:10057E0002360306D8B4E4EF02F0D7EF02F0D880CB
:10058E00800E08640030000E002201220222D8A044
:10059E00D7EF02F0023201320032034AE0EF02F0EE
:1005AE000AAE029E000EE6EF02F0010EA0DDE6EFAF
:1005BE0002F0020E1EDEE6EF02F0040E8BDD1200DC
:1005CE000FD0800E246E19D0C00E246E16D0940E4D
:1005DE00246E13D0D40E246E10D0800E246E0DD047
:1005EE002450010AEEE02450020AEEE02450030AE1
:1005FE00EEE02450040AEEE0F0D72504006E2450FD
:10060E00002600C024F000C02CF078DD2190286A6E
:10061E0028502624E96E000E2720EA6EEE520BE0DB
:10062E0028502624E96E000E2720EA6EEECF2BF01E
:0A063E0007DE282AEDD72180120004
:100648000450000A12E10550000A0FE10650000AA2
:100658000CE10750000A09E1FF0E006EFF0E016E63
:100668007F0E026EFF0E036EA4D0086A096A075057
:10067800D8B4CFEF03F00350D8B4D3EF03F002504F
:1006880006180A6E028E068E0E6A02C008F001C0B5
:100698000CF000C00DF004500D5E0550D8A0053CCC
:1006A8000C5E0650D8A0063C085E086A0C6A0D6A03
:1006B800D8A066EF03F0D890023201320032083237
:1006C800010E0E6E0750035ED8A073EF03F07E0E86
:1006D8000E240326D8B0D7EF03F079EF03F07E0E8F
:1006E8000E240326D8A0DBEF03F0180E0B6E0D3690
:1006F8000C3608360036013602360E360450005ED7
:100708000550D8A0053C015E0650D8A0063C025E04
:1007180006340E120EA094EF03F00D809FEF03F045
:10072800045000260550D8B0053C01260650D8B024
:10073800062802260D900B2E7BEF03F0C5EF03F081
:10074800D8900036013602360E360450005E055049
:10075800D8A0053C015E0650D8A0063C025E0634CF
:100768000E10010B0D26D8B00C2AD8B4082AD8A42C
:10077800C5EF03F008320C320D32032AD8B4D7EF94
:1007880003F00AAE089E0850026E0C50016E0D5020
:10079800006EDDEF03F0010EF2DCDDEF03F0020E78
:1007A800A9DCDDEF03F0040E27DDDDEF03F0080E12
:0407B80094DC1200BB
:1007BC000F0EC16E070EB46E9380860ED56ED6DD0D
:0E07CC00F18CF292F288F28E0000FED7FFD779
:020000040030CA
:0E000000000C1F1EFF8381FF0FC00FE00F409A
:00000001FF
