:040000005EEF00F0BF
:1000080000C016F001C015F0F0A005D0F090100E59
:10001800175E000E185AF2A205D0F292100E17269B
:10002800000E182213D8060E0D6E0D2EFED70000F6
:0A00380016C000F015C001F0110021
:1000420021C0C9FFC7B002D00000FCD7C9CF00F061
:0200520012009A
:10005400829018C000F0000E18BEFF0E016E00C0A2
:1000640021F0EDDF060E0D6E0D2EFED7000017C039
:0800740021F0E5DF828012009B
:10007C00FF0E1D6EFF0E1E6EFF0E1F6EFF0E206E0E
:10008C00420E196E000E1A6E210E1B6E000E1C6EA7
:10009C00949E93929380C66A400EC76EC68A1200D5
:1000AC000900F5CFE6FF0006FBE10106F9E11200BD
:1000BC00176A3F0E186E070EC16EDADF946AFF0ED8
:1000CC00936EF19EF288F292F18CF086F090F18AA8
:0800DC00F28E0000FED7FFD7F1
:020000040030CA
:0E000000000C1F1EFF8381FF0FC00FE00F409A
:00000001FF
