:0400000006EF05F012
:1000080000C019F001C018F00BC017F00CC016F0B2
:100018000DC015F09EAA38D0245032244B6E2550BE
:1000280033204C6EFDEC04F04BC0E1FF4CC0E2FF06
:1000380000C0E6FF244A252A000E251802E1040E16
:10004800241821E1010E5F6E3DD834C04DF035C053
:100058004EF036C04FF037C050F03D0E516E000ED6
:10006800526EBBDA010E4D6E010E4E6E3D0E4F6E96
:10007800000E506E75DADF0E5B6EE9D8430E5B6ECC
:10008800E6D8246A256A9E9A19C000F018C001F0C3
:0E00980017C00BF016C00CF015C00DF01100D3
:1000A6000F0E0C6E470E0D6E0D2EFED70C2EFCD7C6
:0600B60000000000120032
:0600BC000000000012002C
:0A00C200210E0D6E0D2EFED7120068
:1000CC005FBE02D0819E01D0818E5FBC02D0819C2C
:1000DC0001D0818C5FBA02D0819A01D0818A5FB83D
:1000EC0002D0819801D0818838B002D0818401D0AF
:1000FC0081948186DDDF81965FB602D0819E01D02E
:10010C00818E5FB402D0819C01D0818C5FB202D011
:10011C00819A01D0818A5FB002D0819801D0818808
:10012C0038B002D0818401D081948186C1DF819660
:0C013C0038A002D0B2DF01D0BEDF1200FC
:100148000B820BAEAEEF00F003680268016800682E
:080158000A360232FF0E12000C
:100160000B840BAEBBEF00F0010E036E026A016A56
:0A017000006A0A360232FF0E120088
:0E017A00026A016A006A086A036A000E120037
:100188000A6A0350D8A40A800750D8A40A820A50E1
:10019800D8B427EF01F0030AD8B4E0EF00F00AB0B2
:1001A800DBEF00F006AE25EF01F023EF01F002AE21
:1001B80023EF01F025EF01F00250800B0A6E029E3A
:1001C8000650800B069E0A18D8B4F1EF00F00A50CA
:1001D800D8B423EF01F025EF01F00750035CD8B441
:1001E800FBEF00F0D8A017EF01F01DEF01F006506B
:1001F800025CD8B405EF01F0D8A017EF01F01DEFAD
:1002080001F00550015CD8B40FEF01F0D8A017EF4A
:1002180001F01DEF01F00450005CD8B427EF01F0A5
:10022800D8B01DEF01F00A52D8B425EF01F023EF42
:1002380001F00A52D8B423EF01F025EF01F0D8807D
:0E0248001200D8901200D880D8841200120044
:0C02560038905BC05FF037DF388012008A
:100262000D6A086A0050D8B4000C04180A6E0ABE5F
:100272000D1E0B6A04AE02D0041E042A00AE02D088
:10028200001E002A005004100A6E0ABE1FD004503D
:10029200085E003600340836045008260036060E82
:1002A2000C6E00340836045000B0085E00A0082628
:1002B20000360C2EF6D700A008260BB015D00DAED6
:1002C200000C001E002A081E082A000C04AE09D0E9
:1002D20000BE04D00050086E006AF1D7006A002AFE
:1002E200000C001E0B2AD3D7082A0450085CD8A49D
:0E02F200E6D7086A002A00AEE2D7FF0C120021
:10030000086A096A000E0762036405EF02F00250F2
:1003100006180A6E075003267E0ED8A096EF01F04D
:10032000035ED8B009EF02F09AEF01F0035ED8A0A7
:100330000DEF02F0028E068E02C00EF001C00BF02F
:1003400000C00DF000500402F4CF0CF00150050283
:10035000F4CF00F0F3CF08F00402F3500C26F45071
:100360000822000E00220D500502F3500C26F45016
:100370000822000E002202500402F3500826F45016
:10038000002202500502016A000E0122F3500026ED
:10039000F45001220D500602F3500826F4500022BA
:1003A000026A000E012202220B500602F3500026C0
:1003B000F4500122000E02220E500602F3500126D4
:1003C000F450022202BEEDEF01F00836003601368D
:1003D00002360306D8B40DEF02F000EF02F0D88029
:1003E000800E08640030000E002201220222D8A0F4
:1003F00000EF02F0023201320032034A09EF02F04C
:100400000AAE029E000E0FEF02F0010EB6DE0FEFF5
:1004100002F0020E99DE0FEF02F0040EA1DE1200D0
:100420005BC004F05CC005F004C002F005C003F03E
:10043000044A052A5DC000F05EC001F05D4A5E2AF4
:1004400000C0E9FF01C0EAFF02C0E1FF03C0E2FF14
:10045000EECFE6FF02C0E9FF03C0EAFFEE5201E083
:0C046000E3D75BC000F05CC001F01200AC
:10046C00FF0E266EFF0E276EFF0E286EFF0E296EF6
:10047C00FA0E2A6E090E2B6E000E2C6E000E2D6ECF
:10048C00FF0E2E6EFF0E2F6E000E306E000E316EB4
:10049C00FF0E396EFF0E3A6E000E3B6E000E3C6E78
:1004AC00AC8A900EAB6E948E949C9EAA03D0AECF69
:0604BC0000F0FBD7120066
:1004C200939693949398939A939C939E81968194F6
:1004D200819E819C819A8198E5DDE4DDE3DD818A5C
:1004E20081888186EADD8196DDDD8186E6DD819681
:1004F200D9DD8186E2DD8196D5DD81988186DDDDDB
:100502008196D0DD8186D9DD8196819A818E818620
:10051200D4DD8196C7DD819E81888186CEDD81967C
:1005220081988186CADD8196BDDD8186C6DD819690
:1005320081888186C2DD8196B5DD81988186BDDDA7
:100542008196818E818C818A81888186B6DD8196B1
:06055200A9DD3880120053
:100558000900F5CFE6FF0006FBE10106F9E112000C
:100568000FD0800E4D6E19D0C00E4D6E16D0940E61
:100578004D6E13D0D40E4D6E10D0800E4D6E0DD032
:100588004D50010AEEE04D50020AEEE04D50030ACC
:10059800EEE04D50040AEEE0F0D74E04006E4D50E8
:1005A800002600C04DF000C05FF08CDD3890516A25
:1005B80051504F24E96E000E5020EA6EEE520BE0C7
:1005C80051504F24E96E000E5020EA6EEECF5BF0DA
:0A05D8003EDE512AEDD738801200F4
:1005E200596A5A6A4DC055F04EC056F04FC057F086
:1005F20050C058F05850FF0A08E15750FF0A05E171
:100602005650FF0A02E15550FF0A0CE151C05BF05F
:1006120052C05CF01A0E5D6E000E5E6E00DF030EBD
:10062200006EE9D1010E536E57AE0ED0800E5718F0
:10063200006E00C057F0532A51C0E1FF52C0E2FFE2
:100642002D0EE66E514A522A000E006E581808E12D
:100652000050571805E10050561802E15550000AA3
:100662000BE151C05BF052C05CF01E0E5D6E000EDD
:100672005E6ED5DE006ABFD15850FF0A08E15750BE
:10068200000A05E15650000A02E15550000A0CE149
:1006920051C05BF052C05CF0200E5D6E000E5E6ECB
:1006A200BEDE53C000F0A7D1000E046E000E056E30
:1006B200000E066E7F0E076E55C000F056C001F0A8
:1006C20057C002F058C003F05EDD010ED8B0000E34
:1006D200006E00521BE055C000F056C001F057C03A
:1006E20002F058C003F0000E046E000E056E200EDC
:1006F200066E820E076E03DE00C055F001C056F092
:1007020002C057F003C058F05A06CED7000E046E4E
:10071200000E056E200E066E820E076E55C000F0AA
:1007220056C001F057C002F058C003F02CDD000E95
:10073200D8B0010E006E00521BE055C000F056C04A
:1007420001F057C002F058C003F0CD0E046ECC0E7B
:10075200056E4C0E066E7B0E076ED1DD00C055F0A5
:1007620001C056F002C057F003C058F05A2ACED743
:10077200FF0E5514086EFF0E5614096E7F0E5714A5
:100782000A6E000E58140B6E08C004F009C005F082
:100792000AC006F00BC007F0043604900536063690
:1007A2000736000E5514006E000E5614016E000E30
:1007B2005714026EFF0E5814036E00C055F001C0AC
:1007C20056F002C057F003C058F004505510006EA6
:1007D20005505610016E06505710026E0750581001
:1007E200036E00C055F001C056F002C057F003C0BE
:1007F20058F07F0E585C006E00C054F0010E586E27
:1008020000C004F055C000F056C001F057C002F01D
:1008120058C003F0045007E000360090013602365B
:100822000336FF0FF8D700C055F001C056F002C0E2
:1008320057F003C058F051C0E1FF52C0E2FF5850D8
:10084200300FE66E514A522A800E5A18006E800E00
:10085200010A005C08E3800E060A006E800E5A1838
:10086200005C01E30AD051C0E1FF52C0E2FF2E0E4C
:10087200E66E514A522A010E596E060E546E5450BB
:10088200000A54E0586A55C000F056C001F057C043
:1008920002F058C003F000360090013602360336EB
:1008A2000036009001360236033655500026565067
:1008B2000122575002225850032200C055F001C0B5
:1008C20056F002C057F003C058F055C000F056C0B1
:1008D20001F057C002F058C003F000360090013614
:1008E2000236033600C055F001C056F002C057F080
:1008F20003C058F051C0E1FF52C0E2FF5850300F20
:10090200E66E514A522A5950000A0EE15A065A50CE
:10091200000A0AE151C0E1FF52C0E2FF2E0EE66E6C
:10092200514A522A010E596E5406A9D7FF0E51247C
:10093200E96EFF0E5220EA6EEE50300A05E1010E1A
:10094200515E000E525AF2D7FF0E5124E96EFF0E8D
:100952005220EA6EEE502E0A04E1010E515E000EA4
:10096200525A5A50000A41E051C0E1FF52C0E2FF20
:10097200650EE66E514A522A800E5A18006E800E9B
:10098200000A005C0BE251C0E1FF52C0E2FF2D0EF3
:10099200E66E514A522A5A5000085A6E5AC054F012
:1009A200800E090A006E800E5A18005C0EE20A0ED2
:1009B200046E54C000F054DC51C0E1FF52C0E2FFAB
:1009C2000050300FE66E514A522A0A0E046E54C08D
:1009D20000F046DC08C000F051C0E1FF52C0E2FF67
:1009E2000050300FE66E514A522A51C0E1FF52C008
:0809F200E2FFE66A006A120050
:1009FA00AECF01F0ABA202D0AB98AB8801C000F039
:020A0A001200D8
:100A0C0032EC05F00F0EC16E070EB46E340E326E62
:100A1C00000E336E9E9A9D8AF28CF28E4CDDB88657
:100A2C00B06ACF0EAF6EAC841BDD040E0B6E0C0ED9
:100A3C000C6E330E0D6E0D2EFED70C2EFCD70B2E1E
:0C0A4C00FAD7000000000000FED7FFD722
:100A640010EE1AF00C0E006E010E016E580EF66EAA
:0E0A74000A0EF76E000EF86EACEC02F01200E7
:040A58004E614E009D
:020A5C00300068
:040A5E00494E4600B7
:020A6200000092
:020000040030CA
:0E000000000C1F1EFF8381FF0FC00FE00F409A
:00000001FF
