:040000002CEF05F0EC
:1000080000C018F001C017F00CC016F00DC015F0B4
:100018009EAC3DD09E9C336A346AC4CF01F0006A1E
:1000280000C033F001C034F0C3500026000E012296
:1000380000C033F001C034F0AEDA900E046E3E0E0C
:10004800056E7A0E066E7D0E076E0ED900C035F06D
:1000580001C036F002C037F003C038F000C039F0F4
:1000680001C03AF002C03BF003C03CF0230E3D6EE5
:10007800000E3E6EE1DA010E4B6E4AD8010E396E63
:10008800010E3A6E230E3B6E000E3C6E98DAF2A417
:1000980006D0F294C284480ED76EE40ED66E18C00D
:1000A80000F017C001F016C00CF015C00DF01100DB
:1000B8000F0E0C6E470E0D6E0D2EFED70C2EFCD7B4
:0600C80000000000120020
:0600CE000000000012001A
:0A00D400210E0D6E0D2EFED7120056
:1000DE000B820BAE79EF00F00368026801680068CE
:0800EE000A360232FF0E120077
:1000F6000B840BAE86EF00F0010E036E026A016AF6
:0A010600006A0A360232FF0E1200F2
:080110000AAE029E000E12006F
:100118004BBE02D0839E01D0838E4BBC02D0839C01
:1001280001D0838C4BBA02D0839A01D0838A4BB812
:1001380002D0839801D0838832B002D0838401D062
:1001480083948386C0DF83964BB602D0839E01D00A
:10015800838E4BB402D0839C01D0838C4BB202D0E7
:10016800839A01D0838A4BB002D0839801D08388C8
:1001780032B002D0838401D083948386A4DF83962F
:0C01880032A002D095DF01D0A1DF1200F0
:0E019400026A016A006A086A036A000E12001D
:1001A2000A6A0350D8A40A800750D8A40A820A50C7
:1001B200D8B434EF01F0030AD8B4EDEF00F00AB07E
:1001C200E8EF00F006AE32EF01F030EF01F002AEE0
:1001D20030EF01F032EF01F00250800B0A6E029E06
:1001E2000650800B069E0A18D8B4FEEF00F00A50A3
:1001F200D8B430EF01F032EF01F00750035CD8B40D
:1002020008EF01F0D8A024EF01F02AEF01F0065028
:10021200025CD8B412EF01F0D8A024EF01F02AEF6B
:1002220001F00550015CD8B41CEF01F0D8A024EF16
:1002320001F02AEF01F00450005CD8B434EF01F071
:10024200D8B02AEF01F00A52D8B432EF01F030EF01
:1002520001F00A52D8B430EF01F032EF01F0D88049
:0E0262001200D8901200D880D884120012002A
:10027000086A096A000E07620364BDEF01F00250CC
:1002800006180A6E075003267E0ED8A04EEF01F026
:10029000035ED8B0C1EF01F052EF01F0035ED8A0C9
:1002A000C5EF01F0028E068E02C00EF001C00BF009
:1002B00000C00DF000500402F4CF0CF00150050214
:1002C000F4CF00F0F3CF08F00402F3500C26F45002
:1002D0000822000E00220D500502F3500C26F450A7
:1002E0000822000E002202500402F3500826F450A7
:1002F000002202500502016A000E0122F35000267E
:10030000F45001220D500602F3500826F45000224A
:10031000026A000E012202220B500602F350002650
:10032000F4500122000E02220E500602F350012664
:10033000F450022202BEA5EF01F008360036013665
:1003400002360306D8B4C5EF01F0B8EF01F0D8804B
:10035000800E08640030000E002201220222D8A084
:10036000B8EF01F0023201320032034AC1EF01F06E
:100370000AAE029E000EC7EF01F0010E0BDFC7EFC1
:1003800001F0020EACDEC7EF01F0040EB4DE120085
:0C039000329047C04BF0C0DE32801200FB
:10039C000D6A086A0050D8B4000C04180A6E0ABE24
:1003AC000D1E0B6A04AE02D0041E042A00AE02D04D
:1003BC00001E002A005004100A6E0ABE1FD0045002
:1003CC00085E003600340836045008260036060E47
:1003DC000C6E00340836045000B0085E00A00826ED
:1003EC0000360C2EF6D700A008260BB015D00DAE9B
:1003FC00000C001E002A081E082A000C04AE09D0AE
:10040C0000BE04D00050086E006AF1D7006A002AC2
:10041C00000C001E0B2AD3D7082A0450085CD8A461
:0E042C00E6D7086A002A00AEE2D7FF0C1200E5
:10043A000C6A0E6A0250D8A436EF02F001C002F02C
:10044A0000C001F0006A0E860250D8A436EF02F00E
:10045A0001C002F0016A0E960E880250D8B448EF25
:10046A0002F00E50035ED8A4D8A04DEF02F0D89047
:10047A0002BE52EF02F0003601360236032E3DEF7D
:10048A0002F04DEF02F0010E0C6E7FDE55EF02F026
:10049A00020E0C6E2BDE55EF02F0040E0C6E33DEEC
:0204AA0012003E
:1004AC0047C004F048C005F004C002F005C003F0DA
:1004BC00044A052A49C000F04AC001F0494A4A2AB8
:1004CC0000C0E9FF01C0EAFF02C0E1FF03C0E2FF88
:1004DC00EECFE6FF02C0E9FF03C0EAFFEE5201E0F7
:0C04EC00E3D747C000F048C001F0120048
:1004F8000900F5CFE6FF0006FBE10106F9E112006D
:10050800959695949598959A959C959E839683949F
:10051800839E839C839A8398CBDDCADDC9DD838A59
:1005280083888386D0DD8396C3DD8386CCDD83967E
:10053800BFDD8386C8DD8396BBDD83988386C3DDF4
:100548008396B6DD8386BFDD8396839A838E838602
:10055800BADD8396ADDD839E83888386B4DD83967A
:1005680083988386B0DD8396A3DD8386ACDD83968E
:1005780083888386A8DD83969BDD83988386A3DDA5
:100588008396838E838C838A838883869CDD839677
:060598008FDD328012002D
:10059E000050086E0150006E016A026A036A0B6A0F
:1005AE000C6A960E036E0A6A00C001F008C000F0D5
:0805BE00086A026A3BDF12002B
:1005C6000FD0800E396E19D0C00E396E16D0940E2B
:1005D600396E13D0D40E396E10D0800E396E0DD010
:1005E6003950010AEEE03950020AEEE03950030AAA
:1005F600EEE03950040AEEE0F0D73A04006E3950C6
:10060600002600C039F000C04BF083DD32903D6A11
:100616003D503B24E96E000E3C20EA6EEE520BE0A4
:100626003D503B24E96E000E3C20EA6EEECF47F0CB
:0A063600ACDE3D2AEDD73280120041
:10064000456A466A39C041F03AC042F03BC043F0C7
:100650003CC044F04450FF0A08E14350FF0A05E162
:100660004250FF0A02E14150FF0A0CE13DC047F051
:100670003EC048F0190E496E000E4A6E17DF030E99
:10068000006EE9D1010E3F6E43AE0ED0800E4318CE
:10069000006E00C043F03F2A3DC0E1FF3EC0E2FFD4
:1006A0002D0EE66E3D4A3E2A000E006E441808E10B
:1006B0000050431805E10050421802E14150000A81
:1006C0000BE13DC047F03EC048F01D0E496E000EE4
:1006D0004A6EECDE006ABFD14450FF0A08E1435085
:1006E000000A05E14250000A02E14150000A0CE113
:1006F0003DC047F03EC048F01F0E496E000E4A6EE6
:10070000D5DE3FC000F0A7D1000E046E000E056ECE
:10071000000E066E7F0E076E41C000F042C001F071
:1007200043C002F044C003F03CDD010ED8B0000E1F
:10073000006E00521BE041C000F042C001F043C017
:1007400002F044C003F0000E046E000E056E200E91
:10075000066E820E076E8CDD00C041F001C042F0D3
:1007600002C043F003C044F04606CED7000E046E2C
:10077000000E056E200E066E820E076E41C000F060
:1007800042C001F043C002F044C003F00ADD000E95
:10079000D8B0010E006E00521BE041C000F042C014
:1007A00001F043C002F044C003F0CD0E046ECC0E45
:1007B000056E4C0E066E7B0E076E5ADD00C041F0D2
:1007C00001C042F002C043F003C044F0462ACED735
:1007D000FF0E4114086EFF0E4214096E7F0E431483
:1007E0000A6E000E44140B6E08C004F009C005F038
:1007F0000AC006F00BC007F0043604900536063632
:100800000736000E4114006E000E4214016E000EF9
:100810004314026EFF0E4414036E00C041F001C089
:1008200042F002C043F003C044F004504110006E97
:1008300005504210016E06504310026E07504410DE
:10084000036E00C041F001C042F002C043F003C09B
:1008500044F07F0E445C006E00C040F0010E446E18
:1008600000C004F041C000F042C001F043C002F0FB
:1008700044C003F0045007E0003600900136023611
:100880000336FF0FF8D700C041F001C042F002C0AC
:1008900043F003C044F03DC0E1FF3EC0E2FF4450DE
:1008A000300FE66E3D4A3E2A800E4618006E800EDE
:1008B000010A005C08E3800E060A006E800E4618EE
:1008C000005C01E30AD03DC0E1FF3EC0E2FF2E0E16
:1008D000E66E3D4A3E2A010E456E060E406E4050C1
:1008E000000A54E0446A41C000F042C001F043C035
:1008F00002F044C003F000360090013602360336A1
:100900000036009001360236033641500026425030
:100910000122435002224450032200C041F001C092
:1009200042F002C043F003C044F041C000F042C0B6
:1009300001F043C002F044C003F0003600900136DD
:100940000236033600C041F001C042F002C043F05D
:1009500003C044F03DC0E1FF3EC0E2FF4450300F11
:10096000E66E3D4A3E2A4550000A0EE146064650D4
:10097000000A0AE13DC0E1FF3EC0E2FF2E0EE66E36
:100980003D4A3E2A010E456E4006A9D7FF0E3D2482
:10099000E96EFF0E3E20EA6EEE50300A05E1010ED0
:1009A0003D5E000E3E5AF2D7FF0E3D24E96EFF0E6B
:1009B0003E20EA6EEE502E0A04E1010E3D5E000E6E
:1009C0003E5A4650000A41E03DC0E1FF3EC0E2FF12
:1009D000650EE66E3D4A3E2A800E4618006E800E79
:1009E000000A005C0BE23DC0E1FF3EC0E2FF2D0EBD
:1009F000E66E3D4A3E2A46500008466E46C040F02C
:100A0000800E090A006E800E4618005C0EE20A0E87
:100A1000046E40C000F0C2DC3DC0E1FF3EC0E2FF1A
:100A20000050300FE66E3D4A3E2A0A0E046E40C06A
:100A300000F0B4DC08C000F03DC0E1FF3EC0E2FFC2
:100A40000050300FE66E3D4A3E2A3DC0E1FF3EC0F9
:080A5000E2FFE66A006A1200F1
:100A580049EC05F0968254DD9E9C9D8C710EC26E09
:100A6800CE0EC16EF28C850ED56E480ED76EE40E92
:100A7800D66EF294F28AF28EC2840000FED7FFD7B7
:100A920010EE19F00A0E006E010E016E880EF66E4F
:0E0AA2000A0EF76E000EF86E7CEC02F01200E9
:040A88004E614E006D
:020A8C00300038
:040A8E00494E460087
:020000040030CA
:0D000100220F0EFF0181FF0FC00FE00F4026
:00000001FF
