:0400000036EF00F0E7
:1000080000C015F0F0A00DD016520BE1010E166ECF
:10001800840ED56E0B0ED76EDB0ED66E8280F090F6
:10002800F294F2A414D0175001080BE2840ED56E96
:100038000B0ED76EDB0ED66E8280F090F294170608
:1000480006D0166A020E176ED59E8290F29415C0DD
:0400580000F01100A3
:10005C000900F5CFE6FF0006FBE10106F9E112000D
:10006C00166A020E176E949082909382D59EF2942B
:0E007C00F28AF19AF090F086F28EFFD7FFD74D
:020000040030CA
:0D000100220F0EFF0181FF0FC00FE00F4026
:00000001FF
