:0400000084EF01F098
:1000080000C018F001C017F00CC016F00DC015F0B4
:100018000ED900C019F081CF1BF0F290010E1C6EB2
:10002800010E1D6E00C01EF082D818C000F017C067
:0C00380001F016C00CF015C00DF0110016
:100044000F0E0C6E470E0D6E0D2EFED70C2EFCD728
:0600540000000000120094
:06005A000000000012008E
:0A006000210E0D6E0D2EFED71200CA
:10006A000B6A0A6A096A00500402F4CF09F0F3CF56
:10007A0008F001500502F4CF0BF0F3CF0AF000505C
:10008A000502F3500926F4500A22E86A0B220150AD
:10009A000402F3500926F4500A22E86A0B2208C027
:1000AA0000F009C001F00AC002F00BC003F0120010
:1000BA002BBE02D0839E01D0838E2BBC02D0839CA0
:1000CA0001D0838C2BBA02D0839A01D0838A2BB8B1
:1000DA0002D0839801D083881AB002D0838401D0D9
:1000EA0083948386B5DF83962BB602D0839E01D094
:1000FA00838E2BB402D0839C01D0838C2BB202D086
:10010A00839A01D0838A2BB002D0839801D0838846
:10011A001AB002D0838401D08394838699DF8396B0
:0C012A001AA002D08ADF01D096DF12007C
:100136000FD0800E1C6E19D0C00E1C6E16D0940EF9
:100146001C6E13D0D40E1C6E10D0800E1C6E0DD0FB
:100156001C50010AEEE01C50020AEEE01C50030A95
:10016600EEE01C50040AEEE0F0D71D04006E1C50B1
:10017600002600C01CF01A8000C02BF09BDF1A90EE
:0A0186001EC02BF097DF1A80120054
:100190000900F5CFE6FF0006FBE10106F9E11200D8
:1001A000959695949598959A959C959E839683940B
:1001B000839E839C839A839845DF44DF43DF838A51
:1001C000838883864ADF83963DDF838646DF839676
:1001D00039DF838642DF839635DF839883863DDF70
:1001E000839630DF838639DF8396839A838E838676
:1001F00034DF839627DF839E838883862EDF839672
:10020000839883862ADF83961DDF838626DF839685
:100210008388838622DF839615DF839883861DDF9C
:100220008396838E838C838A8388838616DF839666
:0602300009DF1A80120034
:100236001D6A100E1E6E310E1F6E320E206E330EAC
:10024600216E340E226E350E236E360E246E370E58
:10025600256E380E266E390E276E2A0E286E300E43
:10026600296E230E2A6E1A0E0C6EF80E0D6E0D2ECA
:10027600FED70C2EFCD700001C6A040E1C5C0BE299
:100286001E508114016E0150000A01E104D01E3691
:100296001E901C2AF2D7010E816EF00E8114016E9B
:1002A6000150F00A08E081CF00F00036009000C04F
:1002B60081FF1D2AF2D7816A060E0C6E300E0D6E76
:1002C6000D2EFED70C2EFCD70000F00E8114016E09
:1002D6000150F00AF1E1030E006E000E016E1CC023
:1002E60004F0000E056EBEDE1F0E0026000E012273
:1002F6001D500024E96E000E0120EA6EEECF00F0DC
:020306001200E3
:10030800F00E936E816AF19E81CF1BF0F290F28617
:06031800F28E42DFFFD768
:020000040030CA
:0D000100220F0EFF0181FF0FC00FE00F4026
:00000001FF
