:1000000016EF00F00000000000EF00F0000000001C
:0A0010000000000000000000F3D71C
:10001C000900F5CFE6FF0006FBE10106F9E112004D
:10002C00070EC16E946A826A8280828E050E0B6EF8
:10003C000F0E0C6EF10E0D6E0D2EFED70C2EFCD786
:10004C000B2EFAD78290829E030E0B6E080E0C6E4E
:10005C00770E0D6E0D2EFED70C2EFCD70B2EFAD76D
:10006C008282828C050E0B6E0F0E0C6EF10E0D6ED5
:10007C000D2EFED70C2EFCD70B2EFAD78292829C1B
:10008C00030E0B6E080E0C6E770E0D6E0D2EFED73A
:10009C000C2EFCD70B2EFAD78284828A050E0B6E9F
:1000AC000F0E0C6EF10E0D6E0D2EFED70C2EFCD716
:1000BC000B2EFAD78294829A030E0B6E080E0C6EDE
:1000CC00770E0D6E0D2EFED70C2EFCD70B2EFAD7FD
:1000DC0082868288050E0B6E0F0E0C6EF10E0D6E65
:1000EC000D2EFED70C2EFCD70B2EFAD782968298AB
:1000FC00030E0B6E080E0C6E770E0D6E0D2EFED7CA
:10010C000C2EFCD70B2EFAD78284828A050E0B6E2E
:10011C000F0E0C6EF10E0D6E0D2EFED70C2EFCD7A5
:10012C000B2EFAD78294829A030E0B6E080E0C6E6D
:10013C00770E0D6E0D2EFED70C2EFCD70B2EFAD78C
:10014C008282828C050E0B6E0F0E0C6EF10E0D6EF4
:10015C000D2EFED70C2EFCD70B2EFAD78292829C3A
:10016C00030E0B6E080E0C6E770E0D6E0D2EFED759
:10017C000C2EFCD70B2EFAD78280828E050E0B6EBE
:10018C000F0E0C6EF10E0D6E0D2EFED70C2EFCD735
:10019C000B2EFAD78290829E030E0B6E080E0C6EFD
:1001AC00770E0D6E0D2EFED70C2EFCD70B2EFAD71C
:0401BC003BD7FFD757
:020000040030CA
:0D000100220F0EFF0181FF0FC00FE00F4026
:00000001FF
