:1000000016EF00F00000000000EF00F0000000001C
:0A0010000000000000000000F3D71C
:10001C000900F5CFE6FF0006FBE10106F9E112004D
:10002C00070EC16E946A826A8280828E030E0B6EFA
:10003C00080E0C6E770E0D6E0D2EFED70C2EFCD707
:10004C000B2EFAD78290829E020E0B6E040E0C6E53
:10005C00BA0E0D6E0D2EFED70C2EFCD70B2EFAD72A
:10006C0000008282828C030E0B6E080E0C6E770ED3
:10007C000D6E0D2EFED70C2EFCD70B2EFAD78292BE
:10008C00829C020E0B6E040E0C6EBA0E0D6E0D2EB3
:10009C00FED70C2EFCD70B2EFAD700008284828A56
:1000AC00030E0B6E080E0C6E770E0D6E0D2EFED71A
:1000BC000C2EFCD70B2EFAD78294829A020E0B6E62
:1000CC00040E0C6EBA0E0D6E0D2EFED70C2EFCD738
:1000DC000B2EFAD7000082868288030E0B6E080E58
:1000EC000C6E770E0D6E0D2EFED70C2EFCD70B2E34
:1000FC00FAD782968298020E0B6E040E0C6EBA0E14
:10010C000D6E0D2EFED70C2EFCD70B2EFAD7000041
:10011C008284828A030E0B6E080E0C6E770E0D6EA7
:10012C000D2EFED70C2EFCD70B2EFAD78294829A6A
:10013C00020E0B6E040E0C6EBA0E0D6E0D2EFED74B
:10014C000C2EFCD70B2EFAD700008282828C030E69
:10015C000B6E080E0C6E770E0D6E0D2EFED70C2E40
:10016C00FCD70B2EFAD78292829C020E0B6E040ED9
:10017C000C6EBA0E0D6E0D2EFED70C2EFCD70B2E60
:10018C00FAD700008280828E030E0B6E080E0C6E66
:10019C00770E0D6E0D2EFED70C2EFCD70B2EFAD72C
:1001AC008290829E020E0B6E040E0C6EBA0E0D6EB9
:1001BC000D2EFED70C2EFCD70B2EFAD7000034D701
:0201CC00FFD75B
:020000040030CA
:0D000100220F0EFF0181FF0FC00FE00F4026
:00000001FF
